{
  "_format": "hh-sol-artifact-1",
  "contractName": "ChocoSwiss",
  "sourceName": "contracts/Lock.sol",
  "abi": [
    {
      "inputs": [],
      "stateMutability": "nonpayable",
      "type": "constructor"
    },
    {
      "anonymous": false,
      "inputs": [
        {
          "indexed": true,
          "internalType": "address",
          "name": "owner",
          "type": "address"
        },
        {
          "indexed": true,
          "internalType": "address",
          "name": "approved",
          "type": "address"
        },
        {
          "indexed": true,
          "internalType": "uint256",
          "name": "tokenId",
          "type": "uint256"
        }
      ],
      "name": "Approval",
      "type": "event"
    },
    {
      "anonymous": false,
      "inputs": [
        {
          "indexed": true,
          "internalType": "address",
          "name": "owner",
          "type": "address"
        },
        {
          "indexed": true,
          "internalType": "address",
          "name": "operator",
          "type": "address"
        },
        {
          "indexed": false,
          "internalType": "bool",
          "name": "approved",
          "type": "bool"
        }
      ],
      "name": "ApprovalForAll",
      "type": "event"
    },
    {
      "anonymous": false,
      "inputs": [
        {
          "indexed": true,
          "internalType": "address",
          "name": "previousOwner",
          "type": "address"
        },
        {
          "indexed": true,
          "internalType": "address",
          "name": "newOwner",
          "type": "address"
        }
      ],
      "name": "OwnershipTransferred",
      "type": "event"
    },
    {
      "anonymous": false,
      "inputs": [
        {
          "indexed": true,
          "internalType": "address",
          "name": "from",
          "type": "address"
        },
        {
          "indexed": true,
          "internalType": "address",
          "name": "to",
          "type": "address"
        },
        {
          "indexed": true,
          "internalType": "uint256",
          "name": "tokenId",
          "type": "uint256"
        }
      ],
      "name": "Transfer",
      "type": "event"
    },
    {
      "inputs": [
        {
          "internalType": "address",
          "name": "to",
          "type": "address"
        },
        {
          "internalType": "uint256",
          "name": "tokenId",
          "type": "uint256"
        }
      ],
      "name": "approve",
      "outputs": [],
      "stateMutability": "nonpayable",
      "type": "function"
    },
    {
      "inputs": [
        {
          "internalType": "address",
          "name": "owner",
          "type": "address"
        }
      ],
      "name": "balanceOf",
      "outputs": [
        {
          "internalType": "uint256",
          "name": "",
          "type": "uint256"
        }
      ],
      "stateMutability": "view",
      "type": "function"
    },
    {
      "inputs": [
        {
          "internalType": "uint256",
          "name": "tokenId",
          "type": "uint256"
        }
      ],
      "name": "getApproved",
      "outputs": [
        {
          "internalType": "address",
          "name": "",
          "type": "address"
        }
      ],
      "stateMutability": "view",
      "type": "function"
    },
    {
      "inputs": [
        {
          "internalType": "address",
          "name": "owner",
          "type": "address"
        },
        {
          "internalType": "address",
          "name": "operator",
          "type": "address"
        }
      ],
      "name": "isApprovedForAll",
      "outputs": [
        {
          "internalType": "bool",
          "name": "",
          "type": "bool"
        }
      ],
      "stateMutability": "view",
      "type": "function"
    },
    {
      "inputs": [
        {
          "internalType": "address",
          "name": "to",
          "type": "address"
        }
      ],
      "name": "mint",
      "outputs": [],
      "stateMutability": "nonpayable",
      "type": "function"
    },
    {
      "inputs": [],
      "name": "name",
      "outputs": [
        {
          "internalType": "string",
          "name": "",
          "type": "string"
        }
      ],
      "stateMutability": "view",
      "type": "function"
    },
    {
      "inputs": [],
      "name": "owner",
      "outputs": [
        {
          "internalType": "address",
          "name": "",
          "type": "address"
        }
      ],
      "stateMutability": "view",
      "type": "function"
    },
    {
      "inputs": [
        {
          "internalType": "uint256",
          "name": "tokenId",
          "type": "uint256"
        }
      ],
      "name": "ownerOf",
      "outputs": [
        {
          "internalType": "address",
          "name": "",
          "type": "address"
        }
      ],
      "stateMutability": "view",
      "type": "function"
    },
    {
      "inputs": [],
      "name": "renounceOwnership",
      "outputs": [],
      "stateMutability": "nonpayable",
      "type": "function"
    },
    {
      "inputs": [
        {
          "internalType": "address",
          "name": "from",
          "type": "address"
        },
        {
          "internalType": "address",
          "name": "to",
          "type": "address"
        },
        {
          "internalType": "uint256",
          "name": "tokenId",
          "type": "uint256"
        }
      ],
      "name": "safeTransferFrom",
      "outputs": [],
      "stateMutability": "nonpayable",
      "type": "function"
    },
    {
      "inputs": [
        {
          "internalType": "address",
          "name": "from",
          "type": "address"
        },
        {
          "internalType": "address",
          "name": "to",
          "type": "address"
        },
        {
          "internalType": "uint256",
          "name": "tokenId",
          "type": "uint256"
        },
        {
          "internalType": "bytes",
          "name": "data",
          "type": "bytes"
        }
      ],
      "name": "safeTransferFrom",
      "outputs": [],
      "stateMutability": "nonpayable",
      "type": "function"
    },
    {
      "inputs": [
        {
          "internalType": "address",
          "name": "operator",
          "type": "address"
        },
        {
          "internalType": "bool",
          "name": "approved",
          "type": "bool"
        }
      ],
      "name": "setApprovalForAll",
      "outputs": [],
      "stateMutability": "nonpayable",
      "type": "function"
    },
    {
      "inputs": [
        {
          "internalType": "bytes4",
          "name": "interfaceId",
          "type": "bytes4"
        }
      ],
      "name": "supportsInterface",
      "outputs": [
        {
          "internalType": "bool",
          "name": "",
          "type": "bool"
        }
      ],
      "stateMutability": "view",
      "type": "function"
    },
    {
      "inputs": [],
      "name": "symbol",
      "outputs": [
        {
          "internalType": "string",
          "name": "",
          "type": "string"
        }
      ],
      "stateMutability": "view",
      "type": "function"
    },
    {
      "inputs": [
        {
          "internalType": "uint256",
          "name": "tokenId",
          "type": "uint256"
        }
      ],
      "name": "tokenURI",
      "outputs": [
        {
          "internalType": "string",
          "name": "",
          "type": "string"
        }
      ],
      "stateMutability": "view",
      "type": "function"
    },
    {
      "inputs": [
        {
          "internalType": "address",
          "name": "from",
          "type": "address"
        },
        {
          "internalType": "address",
          "name": "to",
          "type": "address"
        },
        {
          "internalType": "uint256",
          "name": "tokenId",
          "type": "uint256"
        }
      ],
      "name": "transferFrom",
      "outputs": [],
      "stateMutability": "nonpayable",
      "type": "function"
    },
    {
      "inputs": [
        {
          "internalType": "address",
          "name": "newOwner",
          "type": "address"
        }
      ],
      "name": "transferOwnership",
      "outputs": [],
      "stateMutability": "nonpayable",
      "type": "function"
    }
  ],
  "bytecode": "0x60806040523480156200001157600080fd5b506040518060400160405280600a81526020017f43686f636f5377697373000000000000000000000000000000000000000000008152506040518060400160405280600581526020017f43484f434f00000000000000000000000000000000000000000000000000000081525081600090816200008f919062000574565b508060019081620000a1919062000574565b505050620000c4620000b8620000db60201b60201c565b620000e360201b60201c565b620000d533620001a960201b60201c565b62000776565b600033905090565b6000600660009054906101000a900473ffffffffffffffffffffffffffffffffffffffff16905081600660006101000a81548173ffffffffffffffffffffffffffffffffffffffff021916908373ffffffffffffffffffffffffffffffffffffffff1602179055508173ffffffffffffffffffffffffffffffffffffffff168173ffffffffffffffffffffffffffffffffffffffff167f8be0079c531659141344cd1fd0a4f28419497f9722a3daafe3b4186f6b6457e060405160405180910390a35050565b620001b96200023f60201b60201c565b600073ffffffffffffffffffffffffffffffffffffffff168173ffffffffffffffffffffffffffffffffffffffff16036200022b576040517f08c379a00000000000000000000000000000000000000000000000000000000081526004016200022290620006e2565b60405180910390fd5b6200023c81620000e360201b60201c565b50565b6200024f620000db60201b60201c565b73ffffffffffffffffffffffffffffffffffffffff1662000275620002d060201b60201c565b73ffffffffffffffffffffffffffffffffffffffff1614620002ce576040517f08c379a0000000000000000000000000000000000000000000000000000000008152600401620002c59062000754565b60405180910390fd5b565b6000600660009054906101000a900473ffffffffffffffffffffffffffffffffffffffff16905090565b600081519050919050565b7f4e487b7100000000000000000000000000000000000000000000000000000000600052604160045260246000fd5b7f4e487b7100000000000000000000000000000000000000000000000000000000600052602260045260246000fd5b600060028204905060018216806200037c57607f821691505b60208210810362000392576200039162000334565b5b50919050565b60008190508160005260206000209050919050565b60006020601f8301049050919050565b600082821b905092915050565b600060088302620003fc7fffffffffffffffffffffffffffffffffffffffffffffffffffffffffffffffff82620003bd565b620004088683620003bd565b95508019841693508086168417925050509392505050565b6000819050919050565b6000819050919050565b6000620004556200044f620004498462000420565b6200042a565b62000420565b9050919050565b6000819050919050565b620004718362000434565b6200048962000480826200045c565b848454620003ca565b825550505050565b600090565b620004a062000491565b620004ad81848462000466565b505050565b5b81811015620004d557620004c960008262000496565b600181019050620004b3565b5050565b601f8211156200052457620004ee8162000398565b620004f984620003ad565b8101602085101562000509578190505b620005216200051885620003ad565b830182620004b2565b50505b505050565b600082821c905092915050565b6000620005496000198460080262000529565b1980831691505092915050565b600062000564838362000536565b9150826002028217905092915050565b6200057f82620002fa565b67ffffffffffffffff8111156200059b576200059a62000305565b5b620005a7825462000363565b620005b4828285620004d9565b600060209050601f831160018114620005ec5760008415620005d7578287015190505b620005e3858262000556565b86555062000653565b601f198416620005fc8662000398565b60005b828110156200062657848901518255600182019150602085019450602081019050620005ff565b8683101562000646578489015162000642601f89168262000536565b8355505b6001600288020188555050505b505050505050565b600082825260208201905092915050565b7f4f776e61626c653a206e6577206f776e657220697320746865207a65726f206160008201527f6464726573730000000000000000000000000000000000000000000000000000602082015250565b6000620006ca6026836200065b565b9150620006d7826200066c565b604082019050919050565b60006020820190508181036000830152620006fd81620006bb565b9050919050565b7f4f776e61626c653a2063616c6c6572206973206e6f7420746865206f776e6572600082015250565b60006200073c6020836200065b565b9150620007498262000704565b602082019050919050565b600060208201905081810360008301526200076f816200072d565b9050919050565b61285d80620007866000396000f3fe608060405234801561001057600080fd5b506004361061010b5760003560e01c806370a08231116100a2578063a22cb46511610071578063a22cb465146102a4578063b88d4fde146102c0578063c87b56dd146102dc578063e985e9c51461030c578063f2fde38b1461033c5761010b565b806370a082311461022e578063715018a61461025e5780638da5cb5b1461026857806395d89b41146102865761010b565b806323b872dd116100de57806323b872dd146101aa57806342842e0e146101c65780636352211e146101e25780636a627842146102125761010b565b806301ffc9a71461011057806306fdde0314610140578063081812fc1461015e578063095ea7b31461018e575b600080fd5b61012a600480360381019061012591906118eb565b610358565b6040516101379190611933565b60405180910390f35b61014861043a565b60405161015591906119de565b60405180910390f35b61017860048036038101906101739190611a36565b6104cc565b6040516101859190611aa4565b60405180910390f35b6101a860048036038101906101a39190611aeb565b610512565b005b6101c460048036038101906101bf9190611b2b565b610629565b005b6101e060048036038101906101db9190611b2b565b610689565b005b6101fc60048036038101906101f79190611a36565b6106a9565b6040516102099190611aa4565b60405180910390f35b61022c60048036038101906102279190611b7e565b61075a565b005b61024860048036038101906102439190611b7e565b61078b565b6040516102559190611bba565b60405180910390f35b610266610842565b005b610270610856565b60405161027d9190611aa4565b60405180910390f35b61028e610880565b60405161029b91906119de565b60405180910390f35b6102be60048036038101906102b99190611c01565b610912565b005b6102da60048036038101906102d59190611d76565b610928565b005b6102f660048036038101906102f19190611a36565b61098a565b60405161030391906119de565b60405180910390f35b61032660048036038101906103219190611df9565b6109f2565b6040516103339190611933565b60405180910390f35b61035660048036038101906103519190611b7e565b610a86565b005b60007f80ac58cd000000000000000000000000000000000000000000000000000000007bffffffffffffffffffffffffffffffffffffffffffffffffffffffff1916827bffffffffffffffffffffffffffffffffffffffffffffffffffffffff1916148061042357507f5b5e139f000000000000000000000000000000000000000000000000000000007bffffffffffffffffffffffffffffffffffffffffffffffffffffffff1916827bffffffffffffffffffffffffffffffffffffffffffffffffffffffff1916145b80610433575061043282610b09565b5b9050919050565b60606000805461044990611e68565b80601f016020809104026020016040519081016040528092919081815260200182805461047590611e68565b80156104c25780601f10610497576101008083540402835291602001916104c2565b820191906000526020600020905b8154815290600101906020018083116104a557829003601f168201915b5050505050905090565b60006104d782610b73565b6004600083815260200190815260200160002060009054906101000a900473ffffffffffffffffffffffffffffffffffffffff169050919050565b600061051d826106a9565b90508073ffffffffffffffffffffffffffffffffffffffff168373ffffffffffffffffffffffffffffffffffffffff160361058d576040517f08c379a000000000000000000000000000000000000000000000000000000000815260040161058490611f0b565b60405180910390fd5b8073ffffffffffffffffffffffffffffffffffffffff166105ac610bbe565b73ffffffffffffffffffffffffffffffffffffffff1614806105db57506105da816105d5610bbe565b6109f2565b5b61061a576040517f08c379a000000000000000000000000000000000000000000000000000000000815260040161061190611f9d565b60405180910390fd5b6106248383610bc6565b505050565b61063a610634610bbe565b82610c7f565b610679576040517f08c379a00000000000000000000000000000000000000000000000000000000081526004016106709061202f565b60405180910390fd5b610684838383610d14565b505050565b6106a483838360405180602001604052806000815250610928565b505050565b6000806002600084815260200190815260200160002060009054906101000a900473ffffffffffffffffffffffffffffffffffffffff169050600073ffffffffffffffffffffffffffffffffffffffff168173ffffffffffffffffffffffffffffffffffffffff1603610751576040517f08c379a00000000000000000000000000000000000000000000000000000000081526004016107489061209b565b60405180910390fd5b80915050919050565b610762610d24565b600060076000815480929190610777906120ea565b9190505590506107878282610da2565b5050565b60008073ffffffffffffffffffffffffffffffffffffffff168273ffffffffffffffffffffffffffffffffffffffff16036107fb576040517f08c379a00000000000000000000000000000000000000000000000000000000081526004016107f2906121a4565b60405180910390fd5b600360008373ffffffffffffffffffffffffffffffffffffffff1673ffffffffffffffffffffffffffffffffffffffff168152602001908152602001600020549050919050565b61084a610d24565b6108546000610dc0565b565b6000600660009054906101000a900473ffffffffffffffffffffffffffffffffffffffff16905090565b60606001805461088f90611e68565b80601f01602080910402602001604051908101604052809291908181526020018280546108bb90611e68565b80156109085780601f106108dd57610100808354040283529160200191610908565b820191906000526020600020905b8154815290600101906020018083116108eb57829003601f168201915b5050505050905090565b61092461091d610bbe565b8383610e86565b5050565b610939610933610bbe565b83610c7f565b610978576040517f08c379a000000000000000000000000000000000000000000000000000000000815260040161096f9061202f565b60405180910390fd5b61098484848484610ff2565b50505050565b606061099582610b73565b600061099f61104e565b905060008151116109bf57604051806020016040528060008152506109ea565b806109c984611065565b6040516020016109da929190612200565b6040516020818303038152906040525b915050919050565b6000600560008473ffffffffffffffffffffffffffffffffffffffff1673ffffffffffffffffffffffffffffffffffffffff16815260200190815260200160002060008373ffffffffffffffffffffffffffffffffffffffff1673ffffffffffffffffffffffffffffffffffffffff16815260200190815260200160002060009054906101000a900460ff16905092915050565b610a8e610d24565b600073ffffffffffffffffffffffffffffffffffffffff168173ffffffffffffffffffffffffffffffffffffffff1603610afd576040517f08c379a0000000000000000000000000000000000000000000000000000000008152600401610af490612296565b60405180910390fd5b610b0681610dc0565b50565b60007f01ffc9a7000000000000000000000000000000000000000000000000000000007bffffffffffffffffffffffffffffffffffffffffffffffffffffffff1916827bffffffffffffffffffffffffffffffffffffffffffffffffffffffff1916149050919050565b610b7c816111c5565b610bbb576040517f08c379a0000000000000000000000000000000000000000000000000000000008152600401610bb29061209b565b60405180910390fd5b50565b600033905090565b816004600083815260200190815260200160002060006101000a81548173ffffffffffffffffffffffffffffffffffffffff021916908373ffffffffffffffffffffffffffffffffffffffff160217905550808273ffffffffffffffffffffffffffffffffffffffff16610c39836106a9565b73ffffffffffffffffffffffffffffffffffffffff167f8c5be1e5ebec7d5bd14f71427d1e84f3dd0314c0f7b2291e5b200ac8c7c3b92560405160405180910390a45050565b600080610c8b836106a9565b90508073ffffffffffffffffffffffffffffffffffffffff168473ffffffffffffffffffffffffffffffffffffffff161480610ccd5750610ccc81856109f2565b5b80610d0b57508373ffffffffffffffffffffffffffffffffffffffff16610cf3846104cc565b73ffffffffffffffffffffffffffffffffffffffff16145b91505092915050565b610d1f838383611231565b505050565b610d2c610bbe565b73ffffffffffffffffffffffffffffffffffffffff16610d4a610856565b73ffffffffffffffffffffffffffffffffffffffff1614610da0576040517f08c379a0000000000000000000000000000000000000000000000000000000008152600401610d9790612302565b60405180910390fd5b565b610dbc828260405180602001604052806000815250611497565b5050565b6000600660009054906101000a900473ffffffffffffffffffffffffffffffffffffffff16905081600660006101000a81548173ffffffffffffffffffffffffffffffffffffffff021916908373ffffffffffffffffffffffffffffffffffffffff1602179055508173ffffffffffffffffffffffffffffffffffffffff168173ffffffffffffffffffffffffffffffffffffffff167f8be0079c531659141344cd1fd0a4f28419497f9722a3daafe3b4186f6b6457e060405160405180910390a35050565b8173ffffffffffffffffffffffffffffffffffffffff168373ffffffffffffffffffffffffffffffffffffffff1603610ef4576040517f08c379a0000000000000000000000000000000000000000000000000000000008152600401610eeb9061236e565b60405180910390fd5b80600560008573ffffffffffffffffffffffffffffffffffffffff1673ffffffffffffffffffffffffffffffffffffffff16815260200190815260200160002060008473ffffffffffffffffffffffffffffffffffffffff1673ffffffffffffffffffffffffffffffffffffffff16815260200190815260200160002060006101000a81548160ff0219169083151502179055508173ffffffffffffffffffffffffffffffffffffffff168373ffffffffffffffffffffffffffffffffffffffff167f17307eab39ab6107e8899845ad3d59bd9653f200f220920489ca2b5937696c3183604051610fe59190611933565b60405180910390a3505050565b610ffd848484610d14565b611009848484846114f2565b611048576040517f08c379a000000000000000000000000000000000000000000000000000000000815260040161103f90612400565b60405180910390fd5b50505050565b606060405180602001604052806000815250905090565b6060600082036110ac576040518060400160405280600181526020017f300000000000000000000000000000000000000000000000000000000000000081525090506111c0565b600082905060005b600082146110de5780806110c7906120ea565b915050600a826110d7919061244f565b91506110b4565b60008167ffffffffffffffff8111156110fa576110f9611c4b565b5b6040519080825280601f01601f19166020018201604052801561112c5781602001600182028036833780820191505090505b5090505b600085146111b9576001826111459190612480565b9150600a8561115491906124b4565b603061116091906124e5565b60f81b81838151811061117657611175612519565b5b60200101907effffffffffffffffffffffffffffffffffffffffffffffffffffffffffffff1916908160001a905350600a856111b2919061244f565b9450611130565b8093505050505b919050565b60008073ffffffffffffffffffffffffffffffffffffffff166002600084815260200190815260200160002060009054906101000a900473ffffffffffffffffffffffffffffffffffffffff1673ffffffffffffffffffffffffffffffffffffffff1614159050919050565b8273ffffffffffffffffffffffffffffffffffffffff16611251826106a9565b73ffffffffffffffffffffffffffffffffffffffff16146112a7576040517f08c379a000000000000000000000000000000000000000000000000000000000815260040161129e906125ba565b60405180910390fd5b600073ffffffffffffffffffffffffffffffffffffffff168273ffffffffffffffffffffffffffffffffffffffff1603611316576040517f08c379a000000000000000000000000000000000000000000000000000000000815260040161130d9061264c565b60405180910390fd5b611321838383611679565b61132c600082610bc6565b6001600360008573ffffffffffffffffffffffffffffffffffffffff1673ffffffffffffffffffffffffffffffffffffffff168152602001908152602001600020600082825461137c9190612480565b925050819055506001600360008473ffffffffffffffffffffffffffffffffffffffff1673ffffffffffffffffffffffffffffffffffffffff16815260200190815260200160002060008282546113d391906124e5565b92505081905550816002600083815260200190815260200160002060006101000a81548173ffffffffffffffffffffffffffffffffffffffff021916908373ffffffffffffffffffffffffffffffffffffffff160217905550808273ffffffffffffffffffffffffffffffffffffffff168473ffffffffffffffffffffffffffffffffffffffff167fddf252ad1be2c89b69c2b068fc378daa952ba7f163c4a11628f55a4df523b3ef60405160405180910390a461149283838361167e565b505050565b6114a18383611683565b6114ae60008484846114f2565b6114ed576040517f08c379a00000000000000000000000000000000000000000000000000000000081526004016114e490612400565b60405180910390fd5b505050565b60006115138473ffffffffffffffffffffffffffffffffffffffff1661185c565b1561166c578373ffffffffffffffffffffffffffffffffffffffff1663150b7a0261153c610bbe565b8786866040518563ffffffff1660e01b815260040161155e94939291906126c1565b6020604051808303816000875af192505050801561159a57506040513d601f19601f820116820180604052508101906115979190612722565b60015b61161c573d80600081146115ca576040519150601f19603f3d011682016040523d82523d6000602084013e6115cf565b606091505b506000815103611614576040517f08c379a000000000000000000000000000000000000000000000000000000000815260040161160b90612400565b60405180910390fd5b805181602001fd5b63150b7a0260e01b7bffffffffffffffffffffffffffffffffffffffffffffffffffffffff1916817bffffffffffffffffffffffffffffffffffffffffffffffffffffffff191614915050611671565b600190505b949350505050565b505050565b505050565b600073ffffffffffffffffffffffffffffffffffffffff168273ffffffffffffffffffffffffffffffffffffffff16036116f2576040517f08c379a00000000000000000000000000000000000000000000000000000000081526004016116e99061279b565b60405180910390fd5b6116fb816111c5565b1561173b576040517f08c379a000000000000000000000000000000000000000000000000000000000815260040161173290612807565b60405180910390fd5b61174760008383611679565b6001600360008473ffffffffffffffffffffffffffffffffffffffff1673ffffffffffffffffffffffffffffffffffffffff168152602001908152602001600020600082825461179791906124e5565b92505081905550816002600083815260200190815260200160002060006101000a81548173ffffffffffffffffffffffffffffffffffffffff021916908373ffffffffffffffffffffffffffffffffffffffff160217905550808273ffffffffffffffffffffffffffffffffffffffff16600073ffffffffffffffffffffffffffffffffffffffff167fddf252ad1be2c89b69c2b068fc378daa952ba7f163c4a11628f55a4df523b3ef60405160405180910390a46118586000838361167e565b5050565b6000808273ffffffffffffffffffffffffffffffffffffffff163b119050919050565b6000604051905090565b600080fd5b600080fd5b60007fffffffff0000000000000000000000000000000000000000000000000000000082169050919050565b6118c881611893565b81146118d357600080fd5b50565b6000813590506118e5816118bf565b92915050565b60006020828403121561190157611900611889565b5b600061190f848285016118d6565b91505092915050565b60008115159050919050565b61192d81611918565b82525050565b60006020820190506119486000830184611924565b92915050565b600081519050919050565b600082825260208201905092915050565b60005b8381101561198857808201518184015260208101905061196d565b60008484015250505050565b6000601f19601f8301169050919050565b60006119b08261194e565b6119ba8185611959565b93506119ca81856020860161196a565b6119d381611994565b840191505092915050565b600060208201905081810360008301526119f881846119a5565b905092915050565b6000819050919050565b611a1381611a00565b8114611a1e57600080fd5b50565b600081359050611a3081611a0a565b92915050565b600060208284031215611a4c57611a4b611889565b5b6000611a5a84828501611a21565b91505092915050565b600073ffffffffffffffffffffffffffffffffffffffff82169050919050565b6000611a8e82611a63565b9050919050565b611a9e81611a83565b82525050565b6000602082019050611ab96000830184611a95565b92915050565b611ac881611a83565b8114611ad357600080fd5b50565b600081359050611ae581611abf565b92915050565b60008060408385031215611b0257611b01611889565b5b6000611b1085828601611ad6565b9250506020611b2185828601611a21565b9150509250929050565b600080600060608486031215611b4457611b43611889565b5b6000611b5286828701611ad6565b9350506020611b6386828701611ad6565b9250506040611b7486828701611a21565b9150509250925092565b600060208284031215611b9457611b93611889565b5b6000611ba284828501611ad6565b91505092915050565b611bb481611a00565b82525050565b6000602082019050611bcf6000830184611bab565b92915050565b611bde81611918565b8114611be957600080fd5b50565b600081359050611bfb81611bd5565b92915050565b60008060408385031215611c1857611c17611889565b5b6000611c2685828601611ad6565b9250506020611c3785828601611bec565b9150509250929050565b600080fd5b600080fd5b7f4e487b7100000000000000000000000000000000000000000000000000000000600052604160045260246000fd5b611c8382611994565b810181811067ffffffffffffffff82111715611ca257611ca1611c4b565b5b80604052505050565b6000611cb561187f565b9050611cc18282611c7a565b919050565b600067ffffffffffffffff821115611ce157611ce0611c4b565b5b611cea82611994565b9050602081019050919050565b82818337600083830152505050565b6000611d19611d1484611cc6565b611cab565b905082815260208101848484011115611d3557611d34611c46565b5b611d40848285611cf7565b509392505050565b600082601f830112611d5d57611d5c611c41565b5b8135611d6d848260208601611d06565b91505092915050565b60008060008060808587031215611d9057611d8f611889565b5b6000611d9e87828801611ad6565b9450506020611daf87828801611ad6565b9350506040611dc087828801611a21565b925050606085013567ffffffffffffffff811115611de157611de061188e565b5b611ded87828801611d48565b91505092959194509250565b60008060408385031215611e1057611e0f611889565b5b6000611e1e85828601611ad6565b9250506020611e2f85828601611ad6565b9150509250929050565b7f4e487b7100000000000000000000000000000000000000000000000000000000600052602260045260246000fd5b60006002820490506001821680611e8057607f821691505b602082108103611e9357611e92611e39565b5b50919050565b7f4552433732313a20617070726f76616c20746f2063757272656e74206f776e6560008201527f7200000000000000000000000000000000000000000000000000000000000000602082015250565b6000611ef5602183611959565b9150611f0082611e99565b604082019050919050565b60006020820190508181036000830152611f2481611ee8565b9050919050565b7f4552433732313a20617070726f76652063616c6c6572206973206e6f7420746f60008201527f6b656e206f776e6572206e6f7220617070726f76656420666f7220616c6c0000602082015250565b6000611f87603e83611959565b9150611f9282611f2b565b604082019050919050565b60006020820190508181036000830152611fb681611f7a565b9050919050565b7f4552433732313a2063616c6c6572206973206e6f7420746f6b656e206f776e6560008201527f72206e6f7220617070726f766564000000000000000000000000000000000000602082015250565b6000612019602e83611959565b915061202482611fbd565b604082019050919050565b600060208201905081810360008301526120488161200c565b9050919050565b7f4552433732313a20696e76616c696420746f6b656e2049440000000000000000600082015250565b6000612085601883611959565b91506120908261204f565b602082019050919050565b600060208201905081810360008301526120b481612078565b9050919050565b7f4e487b7100000000000000000000000000000000000000000000000000000000600052601160045260246000fd5b60006120f582611a00565b91507fffffffffffffffffffffffffffffffffffffffffffffffffffffffffffffffff8203612127576121266120bb565b5b600182019050919050565b7f4552433732313a2061646472657373207a65726f206973206e6f74206120766160008201527f6c6964206f776e65720000000000000000000000000000000000000000000000602082015250565b600061218e602983611959565b915061219982612132565b604082019050919050565b600060208201905081810360008301526121bd81612181565b9050919050565b600081905092915050565b60006121da8261194e565b6121e481856121c4565b93506121f481856020860161196a565b80840191505092915050565b600061220c82856121cf565b915061221882846121cf565b91508190509392505050565b7f4f776e61626c653a206e6577206f776e657220697320746865207a65726f206160008201527f6464726573730000000000000000000000000000000000000000000000000000602082015250565b6000612280602683611959565b915061228b82612224565b604082019050919050565b600060208201905081810360008301526122af81612273565b9050919050565b7f4f776e61626c653a2063616c6c6572206973206e6f7420746865206f776e6572600082015250565b60006122ec602083611959565b91506122f7826122b6565b602082019050919050565b6000602082019050818103600083015261231b816122df565b9050919050565b7f4552433732313a20617070726f766520746f2063616c6c657200000000000000600082015250565b6000612358601983611959565b915061236382612322565b602082019050919050565b600060208201905081810360008301526123878161234b565b9050919050565b7f4552433732313a207472616e7366657220746f206e6f6e20455243373231526560008201527f63656976657220696d706c656d656e7465720000000000000000000000000000602082015250565b60006123ea603283611959565b91506123f58261238e565b604082019050919050565b60006020820190508181036000830152612419816123dd565b9050919050565b7f4e487b7100000000000000000000000000000000000000000000000000000000600052601260045260246000fd5b600061245a82611a00565b915061246583611a00565b92508261247557612474612420565b5b828204905092915050565b600061248b82611a00565b915061249683611a00565b92508282039050818111156124ae576124ad6120bb565b5b92915050565b60006124bf82611a00565b91506124ca83611a00565b9250826124da576124d9612420565b5b828206905092915050565b60006124f082611a00565b91506124fb83611a00565b9250828201905080821115612513576125126120bb565b5b92915050565b7f4e487b7100000000000000000000000000000000000000000000000000000000600052603260045260246000fd5b7f4552433732313a207472616e736665722066726f6d20696e636f72726563742060008201527f6f776e6572000000000000000000000000000000000000000000000000000000602082015250565b60006125a4602583611959565b91506125af82612548565b604082019050919050565b600060208201905081810360008301526125d381612597565b9050919050565b7f4552433732313a207472616e7366657220746f20746865207a65726f2061646460008201527f7265737300000000000000000000000000000000000000000000000000000000602082015250565b6000612636602483611959565b9150612641826125da565b604082019050919050565b6000602082019050818103600083015261266581612629565b9050919050565b600081519050919050565b600082825260208201905092915050565b60006126938261266c565b61269d8185612677565b93506126ad81856020860161196a565b6126b681611994565b840191505092915050565b60006080820190506126d66000830187611a95565b6126e36020830186611a95565b6126f06040830185611bab565b81810360608301526127028184612688565b905095945050505050565b60008151905061271c816118bf565b92915050565b60006020828403121561273857612737611889565b5b60006127468482850161270d565b91505092915050565b7f4552433732313a206d696e7420746f20746865207a65726f2061646472657373600082015250565b6000612785602083611959565b91506127908261274f565b602082019050919050565b600060208201905081810360008301526127b481612778565b9050919050565b7f4552433732313a20746f6b656e20616c7265616479206d696e74656400000000600082015250565b60006127f1601c83611959565b91506127fc826127bb565b602082019050919050565b60006020820190508181036000830152612820816127e4565b905091905056fea264697066735822122093ca538c8ac2251b0e83b6e6d136f611fb606de76b6fc956dede206386874c8b64736f6c63430008130033",
  "linkReferences": {},
  "deployedLinkReferences": {}
}